{
  "_format": "hh-sol-artifact-1",
  "contractName": "FHETokenVOK",
  "sourceName": "contracts/FHETokenVOK.sol",
  "abi": [
    {
      "inputs": [
        {
          "internalType": "uint128",
          "name": "initialSupply",
          "type": "uint128"
        }
      ],
      "stateMutability": "nonpayable",
      "type": "constructor"
    },
    {
      "inputs": [
        {
          "internalType": "address",
          "name": "spender",
          "type": "address"
        },
        {
          "internalType": "uint256",
          "name": "allowance",
          "type": "uint256"
        },
        {
          "internalType": "uint256",
          "name": "needed",
          "type": "uint256"
        }
      ],
      "name": "ERC20InsufficientAllowance",
      "type": "error"
    },
    {
      "inputs": [
        {
          "internalType": "address",
          "name": "sender",
          "type": "address"
        },
        {
          "internalType": "uint256",
          "name": "balance",
          "type": "uint256"
        },
        {
          "internalType": "uint256",
          "name": "needed",
          "type": "uint256"
        }
      ],
      "name": "ERC20InsufficientBalance",
      "type": "error"
    },
    {
      "inputs": [
        {
          "internalType": "address",
          "name": "approver",
          "type": "address"
        }
      ],
      "name": "ERC20InvalidApprover",
      "type": "error"
    },
    {
      "inputs": [
        {
          "internalType": "address",
          "name": "receiver",
          "type": "address"
        }
      ],
      "name": "ERC20InvalidReceiver",
      "type": "error"
    },
    {
      "inputs": [
        {
          "internalType": "address",
          "name": "sender",
          "type": "address"
        }
      ],
      "name": "ERC20InvalidSender",
      "type": "error"
    },
    {
      "inputs": [
        {
          "internalType": "address",
          "name": "spender",
          "type": "address"
        }
      ],
      "name": "ERC20InvalidSpender",
      "type": "error"
    },
    {
      "anonymous": false,
      "inputs": [
        {
          "indexed": true,
          "internalType": "address",
          "name": "owner",
          "type": "address"
        },
        {
          "indexed": true,
          "internalType": "address",
          "name": "spender",
          "type": "address"
        },
        {
          "indexed": false,
          "internalType": "uint256",
          "name": "value",
          "type": "uint256"
        }
      ],
      "name": "Approval",
      "type": "event"
    },
    {
      "anonymous": false,
      "inputs": [
        {
          "indexed": true,
          "internalType": "address",
          "name": "from",
          "type": "address"
        },
        {
          "indexed": true,
          "internalType": "address",
          "name": "to",
          "type": "address"
        },
        {
          "indexed": false,
          "internalType": "uint256",
          "name": "value",
          "type": "uint256"
        }
      ],
      "name": "Transfer",
      "type": "event"
    },
    {
      "inputs": [
        {
          "internalType": "address",
          "name": "owner",
          "type": "address"
        },
        {
          "internalType": "address",
          "name": "spender",
          "type": "address"
        }
      ],
      "name": "allowance",
      "outputs": [
        {
          "internalType": "uint256",
          "name": "",
          "type": "uint256"
        }
      ],
      "stateMutability": "view",
      "type": "function"
    },
    {
      "inputs": [
        {
          "internalType": "address",
          "name": "spender",
          "type": "address"
        },
        {
          "internalType": "uint256",
          "name": "value",
          "type": "uint256"
        }
      ],
      "name": "approve",
      "outputs": [
        {
          "internalType": "bool",
          "name": "",
          "type": "bool"
        }
      ],
      "stateMutability": "nonpayable",
      "type": "function"
    },
    {
      "inputs": [
        {
          "internalType": "address",
          "name": "account",
          "type": "address"
        }
      ],
      "name": "balanceOf",
      "outputs": [
        {
          "internalType": "uint256",
          "name": "",
          "type": "uint256"
        }
      ],
      "stateMutability": "view",
      "type": "function"
    },
    {
      "inputs": [],
      "name": "decimals",
      "outputs": [
        {
          "internalType": "uint8",
          "name": "",
          "type": "uint8"
        }
      ],
      "stateMutability": "view",
      "type": "function"
    },
    {
      "inputs": [
        {
          "internalType": "eaddress",
          "name": "encryptedWallet",
          "type": "bytes32"
        },
        {
          "internalType": "externalEuint128",
          "name": "externalEncryptedValue",
          "type": "bytes32"
        },
        {
          "internalType": "bytes",
          "name": "inputProof",
          "type": "bytes"
        }
      ],
      "name": "decreaseEncryptedBalance",
      "outputs": [],
      "stateMutability": "nonpayable",
      "type": "function"
    },
    {
      "inputs": [
        {
          "internalType": "uint128",
          "name": "amount",
          "type": "uint128"
        }
      ],
      "name": "faucet",
      "outputs": [],
      "stateMutability": "nonpayable",
      "type": "function"
    },
    {
      "inputs": [
        {
          "internalType": "eaddress",
          "name": "encryptedWallet",
          "type": "bytes32"
        }
      ],
      "name": "getEncryptedBalance",
      "outputs": [
        {
          "internalType": "euint128",
          "name": "",
          "type": "bytes32"
        }
      ],
      "stateMutability": "view",
      "type": "function"
    },
    {
      "inputs": [
        {
          "internalType": "eaddress",
          "name": "encryptedWallet",
          "type": "bytes32"
        },
        {
          "internalType": "externalEuint128",
          "name": "externalEncryptedValue",
          "type": "bytes32"
        },
        {
          "internalType": "bytes",
          "name": "inputProof",
          "type": "bytes"
        }
      ],
      "name": "increaseEncryptedBalance",
      "outputs": [],
      "stateMutability": "nonpayable",
      "type": "function"
    },
    {
      "inputs": [],
      "name": "name",
      "outputs": [
        {
          "internalType": "string",
          "name": "",
          "type": "string"
        }
      ],
      "stateMutability": "view",
      "type": "function"
    },
    {
      "inputs": [
        {
          "internalType": "eaddress",
          "name": "encryptedWallet",
          "type": "bytes32"
        },
        {
          "internalType": "externalEuint128",
          "name": "externalEncryptedBalance",
          "type": "bytes32"
        },
        {
          "internalType": "bytes",
          "name": "inputProof",
          "type": "bytes"
        }
      ],
      "name": "setEncryptedBalance",
      "outputs": [],
      "stateMutability": "nonpayable",
      "type": "function"
    },
    {
      "inputs": [],
      "name": "symbol",
      "outputs": [
        {
          "internalType": "string",
          "name": "",
          "type": "string"
        }
      ],
      "stateMutability": "view",
      "type": "function"
    },
    {
      "inputs": [],
      "name": "totalSupply",
      "outputs": [
        {
          "internalType": "uint256",
          "name": "",
          "type": "uint256"
        }
      ],
      "stateMutability": "view",
      "type": "function"
    },
    {
      "inputs": [
        {
          "internalType": "address",
          "name": "to",
          "type": "address"
        },
        {
          "internalType": "uint256",
          "name": "value",
          "type": "uint256"
        }
      ],
      "name": "transfer",
      "outputs": [
        {
          "internalType": "bool",
          "name": "",
          "type": "bool"
        }
      ],
      "stateMutability": "nonpayable",
      "type": "function"
    },
    {
      "inputs": [
        {
          "internalType": "address",
          "name": "from",
          "type": "address"
        },
        {
          "internalType": "address",
          "name": "to",
          "type": "address"
        },
        {
          "internalType": "uint256",
          "name": "value",
          "type": "uint256"
        }
      ],
      "name": "transferFrom",
      "outputs": [
        {
          "internalType": "bool",
          "name": "",
          "type": "bool"
        }
      ],
      "stateMutability": "nonpayable",
      "type": "function"
    }
  ],
  "bytecode": "0x608060405234801562000010575f80fd5b5060405162001566380380620015668339810160408190526200003391620003ee565b6040518060400160405280600b81526020016a464845546f6b656e564f4b60a81b81525060405180604001604052806003815260200162564f4b60e81b8152508160039081620000849190620004bb565b506004620000938282620004bb565b50505062000186620000aa620001e760201b60201c565b80517fed8d60e34876f751cc8b014c560745351147d9de11b9347c854e881b128ea60080546001600160a01b03199081166001600160a01b039384161790915560208301517fed8d60e34876f751cc8b014c560745351147d9de11b9347c854e881b128ea6018054831691841691909117905560408301517fed8d60e34876f751cc8b014c560745351147d9de11b9347c854e881b128ea6028054831691841691909117905560608301517fed8d60e34876f751cc8b014c560745351147d9de11b9347c854e881b128ea6038054909216921691909117905550565b7f5ea69329017273582817d320489fbd94f775580e90c092699ca6f3d12fdf7d0080546001600160a01b03191673a02cda4ca3a71d7c46997716f4283aa851c28812179055620001e0306001600160801b0383166200027f565b50620005ad565b604080516080810182525f808252602082018190529181018290526060810191909152506040805160808101825273687820221192c5b662b25367f70076a37bc79b6c815273848b0066793bcc60346da1f49049357399b8d5956020820152731364cbbf2cdf5032c47d8226a6f6fbd2afcdacac9181019190915273bc91f3dad1a5f19f8390c400196e58073b6a0bc4606082015290565b6001600160a01b038216620002ae5760405163ec442f0560e01b81525f60048201526024015b60405180910390fd5b620002bb5f8383620002bf565b5050565b6001600160a01b038316620002ed578060025f828254620002e1919062000587565b909155506200035f9050565b6001600160a01b0383165f9081526020819052604090205481811015620003415760405163391434e360e21b81526001600160a01b03851660048201526024810182905260448101839052606401620002a5565b6001600160a01b0384165f9081526020819052604090209082900390555b6001600160a01b0382166200037d576002805482900390556200039b565b6001600160a01b0382165f9081526020819052604090208054820190555b816001600160a01b0316836001600160a01b03167fddf252ad1be2c89b69c2b068fc378daa952ba7f163c4a11628f55a4df523b3ef83604051620003e191815260200190565b60405180910390a3505050565b5f60208284031215620003ff575f80fd5b81516001600160801b038116811462000416575f80fd5b9392505050565b634e487b7160e01b5f52604160045260245ffd5b600181811c908216806200044657607f821691505b6020821081036200046557634e487b7160e01b5f52602260045260245ffd5b50919050565b601f821115620004b657805f5260205f20601f840160051c81016020851015620004925750805b601f840160051c820191505b81811015620004b3575f81556001016200049e565b50505b505050565b81516001600160401b03811115620004d757620004d76200041d565b620004ef81620004e8845462000431565b846200046b565b602080601f83116001811462000525575f84156200050d5750858301515b5f19600386901b1c1916600185901b1785556200057f565b5f85815260208120601f198616915b82811015620005555788860151825594840194600190910190840162000534565b50858210156200057357878501515f19600388901b60f8161c191681555b505060018460011b0185555b505050505050565b80820180821115620005a757634e487b7160e01b5f52601160045260245ffd5b92915050565b610fab80620005bb5f395ff3fe608060405234801561000f575f80fd5b50600436106100e5575f3560e01c806390465f6211610088578063a649672211610063578063a6496722146101d5578063a9059cbb146101e8578063da8e696d146101fb578063dd62ed3e1461020e575f80fd5b806390465f621461019b5780639432103a146101ba57806395d89b41146101cd575f80fd5b806318160ddd116100c357806318160ddd1461013f57806323b872dd14610151578063313ce5671461016457806370a0823114610173575f80fd5b806306fdde03146100e9578063095ea7b3146101075780630b330b411461012a575b5f80fd5b6100f1610246565b6040516100fe9190610d26565b60405180910390f35b61011a610115366004610d53565b6102d6565b60405190151581526020016100fe565b61013d610138366004610d7b565b6102ef565b005b6002545b6040519081526020016100fe565b61011a61015f366004610df4565b610384565b604051601281526020016100fe565b610143610181366004610e2d565b6001600160a01b03165f9081526020819052604090205490565b6101436101a9366004610e46565b5f9081526005602052604090205490565b61013d6101c8366004610d7b565b6103a9565b6100f1610404565b61013d6101e3366004610e5d565b610413565b61011a6101f6366004610d53565b6104a1565b61013d610209366004610d7b565b6104ae565b61014361021c366004610e8c565b6001600160a01b039182165f90815260016020908152604080832093909416825291909152205490565b60606003805461025590610ebd565b80601f016020809104026020016040519081016040528092919081815260200182805461028190610ebd565b80156102cc5780601f106102a3576101008083540402835291602001916102cc565b820191905f5260205f20905b8154815290600101906020018083116102af57829003601f168201915b5050505050905090565b5f336102e381858561050a565b60019150505b92915050565b5f61032f8484848080601f0160208091040260200160405190810160405280939291908181526020018383808284375f9201919091525061051c92505050565b5f8681526005602052604090205490915061034a9082610529565b5f8681526005602052604090208190556103649033610557565b505f8581526005602052604090205461037c90610569565b505050505050565b5f33610391858285610578565b61039c8585856105f4565b60019150505b9392505050565b5f6103e98484848080601f0160208091040260200160405190810160405280939291908181526020018383808284375f9201919091525061051c92505050565b5f8681526005602052604090205490915061034a9082610651565b60606004805461025590610ebd565b6702c68af0bb140000816fffffffffffffffffffffffffffffffff1611156104825760405162461bcd60e51b815260206004820152600860248201527f546f6f206d75636800000000000000000000000000000000000000000000000060448201526064015b60405180910390fd5b61049e33826fffffffffffffffffffffffffffffffff1661067f565b50565b5f336102e38185856105f4565b5f6104ee8484848080601f0160208091040260200160405190810160405280939291908181526020018383808284375f9201919091525061051c92505050565b5f86815260056020526040902081905590506103648133610557565b61051783838360016106b7565b505050565b5f6103a283836006610789565b5f8261053b576105385f6108a9565b92505b8161054c576105495f6108a9565b91505b6103a283835f6108c7565b5f61056283836109c2565b5090919050565b5f61057482306109c2565b5090565b6001600160a01b038381165f908152600160209081526040808320938616835292905220545f198110156105ee57818110156105e057604051637dc7a0d960e11b81526001600160a01b03841660048201526024810182905260448101839052606401610479565b6105ee84848484035f6106b7565b50505050565b6001600160a01b03831661061d57604051634b637e8f60e11b81525f6004820152602401610479565b6001600160a01b0382166106465760405163ec442f0560e01b81525f6004820152602401610479565b610517838383610a4b565b5f82610663576106605f6108a9565b92505b81610674576106715f6108a9565b91505b6103a283835f610b71565b6001600160a01b0382166106a85760405163ec442f0560e01b81525f6004820152602401610479565b6106b35f8383610a4b565b5050565b6001600160a01b0384166106e05760405163e602df0560e01b81525f6004820152602401610479565b6001600160a01b03831661070957604051634a1406b160e11b81525f6004820152602401610479565b6001600160a01b038085165f90815260016020908152604080832093871683529290522082905580156105ee57826001600160a01b0316846001600160a01b03167f8c5be1e5ebec7d5bd14f71427d1e84f3dd0314c0f7b2291e5b200ac8c7c3b9258460405161077b91815260200190565b60405180910390a350505050565b7fed8d60e34876f751cc8b014c560745351147d9de11b9347c854e881b128ea6015460405163196d0b9b60e01b81525f917fed8d60e34876f751cc8b014c560745351147d9de11b9347c854e881b128ea600916001600160a01b039091169063196d0b9b90610802908890339089908990600401610f15565b6020604051808303815f875af115801561081e573d5f803e3d5ffd5b505050506040513d601f19601f820116820180604052508101906108429190610f54565b8154604051630f8e573b60e21b8152600481018390523360248201529193506001600160a01b031690633e395cec906044015f604051808303815f87803b15801561088b575f80fd5b505af115801561089d573d5f803e3d5ffd5b50505050509392505050565b5f6102e9826fffffffffffffffffffffffffffffffff166006610c26565b5f8082156108da5750600160f81b6108dd565b505f5b7fed8d60e34876f751cc8b014c560745351147d9de11b9347c854e881b128ea6015460405163022f65e760e31b815260048101879052602481018690527fff00000000000000000000000000000000000000000000000000000000000000831660448201527fed8d60e34876f751cc8b014c560745351147d9de11b9347c854e881b128ea600916001600160a01b03169063117b2f38906064015b6020604051808303815f875af1158015610994573d5f803e3d5ffd5b505050506040513d601f19601f820116820180604052508101906109b89190610f54565b9695505050505050565b5f7fed8d60e34876f751cc8b014c560745351147d9de11b9347c854e881b128ea6008054604051635ca4b5b160e11b8152600481018690526001600160a01b03858116602483015292935091169063b9496b62906044015f604051808303815f87803b158015610a30575f80fd5b505af1158015610a42573d5f803e3d5ffd5b50505050505050565b6001600160a01b038316610a75578060025f828254610a6a9190610f6b565b90915550610ae59050565b6001600160a01b0383165f9081526020819052604090205481811015610ac75760405163391434e360e21b81526001600160a01b03851660048201526024810182905260448101839052606401610479565b6001600160a01b0384165f9081526020819052604090209082900390555b6001600160a01b038216610b0157600280548290039055610b1f565b6001600160a01b0382165f9081526020819052604090208054820190555b816001600160a01b0316836001600160a01b03167fddf252ad1be2c89b69c2b068fc378daa952ba7f163c4a11628f55a4df523b3ef83604051610b6491815260200190565b60405180910390a3505050565b5f808215610b845750600160f81b610b87565b505f5b7fed8d60e34876f751cc8b014c560745351147d9de11b9347c854e881b128ea601546040516303056db360e31b815260048101879052602481018690527fff00000000000000000000000000000000000000000000000000000000000000831660448201527fed8d60e34876f751cc8b014c560745351147d9de11b9347c854e881b128ea600916001600160a01b03169063182b6d9890606401610978565b7fed8d60e34876f751cc8b014c560745351147d9de11b9347c854e881b128ea60154604051639cd07acb60e01b81525f917fed8d60e34876f751cc8b014c560745351147d9de11b9347c854e881b128ea600916001600160a01b0390911690639cd07acb90610c9b9087908790600401610f8a565b6020604051808303815f875af1158015610cb7573d5f803e3d5ffd5b505050506040513d601f19601f82011682018060405250810190610cdb9190610f54565b949350505050565b5f81518084525f5b81811015610d0757602081850181015186830182015201610ceb565b505f602082860101526020601f19601f83011685010191505092915050565b602081525f6103a26020830184610ce3565b80356001600160a01b0381168114610d4e575f80fd5b919050565b5f8060408385031215610d64575f80fd5b610d6d83610d38565b946020939093013593505050565b5f805f8060608587031215610d8e575f80fd5b8435935060208501359250604085013567ffffffffffffffff80821115610db3575f80fd5b818701915087601f830112610dc6575f80fd5b813581811115610dd4575f80fd5b886020828501011115610de5575f80fd5b95989497505060200194505050565b5f805f60608486031215610e06575f80fd5b610e0f84610d38565b9250610e1d60208501610d38565b9150604084013590509250925092565b5f60208284031215610e3d575f80fd5b6103a282610d38565b5f60208284031215610e56575f80fd5b5035919050565b5f60208284031215610e6d575f80fd5b81356fffffffffffffffffffffffffffffffff811681146103a2575f80fd5b5f8060408385031215610e9d575f80fd5b610ea683610d38565b9150610eb460208401610d38565b90509250929050565b600181811c90821680610ed157607f821691505b602082108103610eef57634e487b7160e01b5f52602260045260245ffd5b50919050565b60548110610f1157634e487b7160e01b5f52602160045260245ffd5b9052565b8481526001600160a01b0384166020820152608060408201525f610f3c6080830185610ce3565b9050610f4b6060830184610ef5565b95945050505050565b5f60208284031215610f64575f80fd5b5051919050565b808201808211156102e957634e487b7160e01b5f52601160045260245ffd5b828152604081016103a26020830184610ef556fea164736f6c6343000818000a",
  "linkReferences": {},
  "deployedLinkReferences": {}
}