{
  "_format": "hh-sol-artifact-1",
  "contractName": "FHETokenSwapHistory",
  "sourceName": "contracts/FHETokenSwapHistory.sol",
  "abi": [
    {
      "inputs": [
        {
          "components": [
            {
              "components": [
                {
                  "internalType": "externalEuint128",
                  "name": "value",
                  "type": "bytes32"
                },
                {
                  "internalType": "bytes",
                  "name": "proof",
                  "type": "bytes"
                }
              ],
              "internalType": "struct FHETokenSwapHistory.ExternalInputEuint128",
              "name": "time",
              "type": "tuple"
            },
            {
              "internalType": "address",
              "name": "wallet",
              "type": "address"
            },
            {
              "components": [
                {
                  "components": [
                    {
                      "internalType": "externalEaddress",
                      "name": "value",
                      "type": "bytes32"
                    },
                    {
                      "internalType": "bytes",
                      "name": "proof",
                      "type": "bytes"
                    }
                  ],
                  "internalType": "struct FHETokenSwapHistory.ExternalInputEaddress",
                  "name": "externalToken",
                  "type": "tuple"
                },
                {
                  "components": [
                    {
                      "internalType": "externalEuint128",
                      "name": "value",
                      "type": "bytes32"
                    },
                    {
                      "internalType": "bytes",
                      "name": "proof",
                      "type": "bytes"
                    }
                  ],
                  "internalType": "struct FHETokenSwapHistory.ExternalInputEuint128",
                  "name": "externalAmount",
                  "type": "tuple"
                }
              ],
              "internalType": "struct FHETokenSwapHistory.ExternalTokenData",
              "name": "tokenFromData",
              "type": "tuple"
            },
            {
              "components": [
                {
                  "components": [
                    {
                      "internalType": "externalEaddress",
                      "name": "value",
                      "type": "bytes32"
                    },
                    {
                      "internalType": "bytes",
                      "name": "proof",
                      "type": "bytes"
                    }
                  ],
                  "internalType": "struct FHETokenSwapHistory.ExternalInputEaddress",
                  "name": "externalToken",
                  "type": "tuple"
                },
                {
                  "components": [
                    {
                      "internalType": "externalEuint128",
                      "name": "value",
                      "type": "bytes32"
                    },
                    {
                      "internalType": "bytes",
                      "name": "proof",
                      "type": "bytes"
                    }
                  ],
                  "internalType": "struct FHETokenSwapHistory.ExternalInputEuint128",
                  "name": "externalAmount",
                  "type": "tuple"
                }
              ],
              "internalType": "struct FHETokenSwapHistory.ExternalTokenData",
              "name": "tokenToData",
              "type": "tuple"
            }
          ],
          "internalType": "struct FHETokenSwapHistory.ExternalSwapData",
          "name": "externalSwapData",
          "type": "tuple"
        }
      ],
      "name": "addSwapData",
      "outputs": [],
      "stateMutability": "nonpayable",
      "type": "function"
    },
    {
      "inputs": [
        {
          "internalType": "address",
          "name": "wallet",
          "type": "address"
        }
      ],
      "name": "getSwapDataArray",
      "outputs": [
        {
          "components": [
            {
              "internalType": "uint256",
              "name": "order",
              "type": "uint256"
            },
            {
              "internalType": "address",
              "name": "wallet",
              "type": "address"
            },
            {
              "internalType": "euint128",
              "name": "time",
              "type": "bytes32"
            },
            {
              "components": [
                {
                  "internalType": "eaddress",
                  "name": "token",
                  "type": "bytes32"
                },
                {
                  "internalType": "euint128",
                  "name": "amount",
                  "type": "bytes32"
                }
              ],
              "internalType": "struct FHETokenSwapHistory.TokenData",
              "name": "tokenFromData",
              "type": "tuple"
            },
            {
              "components": [
                {
                  "internalType": "eaddress",
                  "name": "token",
                  "type": "bytes32"
                },
                {
                  "internalType": "euint128",
                  "name": "amount",
                  "type": "bytes32"
                }
              ],
              "internalType": "struct FHETokenSwapHistory.TokenData",
              "name": "tokenToData",
              "type": "tuple"
            }
          ],
          "internalType": "struct FHETokenSwapHistory.SwapData[]",
          "name": "swapDataArray",
          "type": "tuple[]"
        }
      ],
      "stateMutability": "view",
      "type": "function"
    }
  ],
  "bytecode": "0x608060405234801561000f575f80fd5b5061018a6100ae604080516080810182525f808252602082018190529181018290526060810191909152506040805160808101825273687820221192c5b662b25367f70076a37bc79b6c815273848b0066793bcc60346da1f49049357399b8d5956020820152731364cbbf2cdf5032c47d8226a6f6fbd2afcdacac9181019190915273bc91f3dad1a5f19f8390c400196e58073b6a0bc4606082015290565b80517fed8d60e34876f751cc8b014c560745351147d9de11b9347c854e881b128ea60080546001600160a01b03199081166001600160a01b039384161790915560208301517fed8d60e34876f751cc8b014c560745351147d9de11b9347c854e881b128ea6018054831691841691909117905560408301517fed8d60e34876f751cc8b014c560745351147d9de11b9347c854e881b128ea6028054831691841691909117905560608301517fed8d60e34876f751cc8b014c560745351147d9de11b9347c854e881b128ea6038054909216921691909117905550565b7f5ea69329017273582817d320489fbd94f775580e90c092699ca6f3d12fdf7d0080546001600160a01b03191673a02cda4ca3a71d7c46997716f4283aa851c28812179055610b05806101dc5f395ff3fe608060405234801561000f575f80fd5b5060043610610034575f3560e01c80631265e81314610038578063c4d4050f14610061575b5f80fd5b61004b610046366004610896565b610076565b60405161005891906108c3565b60405180910390f35b61007461006f366004610954565b610281565b005b60605f805b5f548110156100d757836001600160a01b03165f82815481106100a0576100a061098b565b5f9182526020909120600160079092020101546001600160a01b0316036100cf57816100cb816109b3565b9250505b60010161007b565b505f8167ffffffffffffffff8111156100f2576100f26109cb565b60405190808252806020026020018201604052801561016a57816020015b6040805160a0810182525f8082526020808301829052828401829052835180850185528281528082018390526060840152835180850190945281845283015260808101919091528152602001906001900390816101105790505b5090505f805b5f5481101561027757856001600160a01b03165f82815481106101955761019561098b565b5f9182526020909120600160079092020101546001600160a01b03160361026f575f81815481106101c8576101c861098b565b5f9182526020918290206040805160a08101825260079093029091018054835260018101546001600160a01b031683850152600281015483830152815180830183526003820154815260048201548186015260608401528151808301909252600581015482526006015492810192909252608081019190915283518490849081106102555761025561098b565b6020026020010181905250818061026b906109b3565b9250505b600101610170565b5090949350505050565b6040805160a0810182525f8082526020808301829052828401829052835180850185528281528082018390526060840152835180850190945281845283015260808101919091525f546102d59060016109df565b81526103366102e483806109f2565b356102ef84806109f2565b6102fd906020810190610a10565b8080601f0160208091040260200160405190810160405280939291908181526020018383808284375f920191909152506106a992505050565b6040808301919091523360208084019190915281518083019092525f808352908201526103d261036960408501856109f2565b61037390806109f2565b3561038160408601866109f2565b61038b90806109f2565b610399906020810190610a10565b8080601f0160208091040260200160405190810160405280939291908181526020018383808284375f920191909152506106bf92505050565b815261040e6103e460408501856109f2565b6103f29060208101906109f2565b3561040060408601866109f2565b6102ef9060208101906109f2565b60208083019190915260608301829052604080518082019091525f8082529181019190915261045b61044360608601866109f2565b61044d90806109f2565b3561038160608701876109f2565b815261048961046d60608601866109f2565b61047b9060208101906109f2565b3561040060608701876109f2565b602082810191909152608084018281525f805460018101825590805285517f290decd9548b62a8d60345a988386fc84ba6bc95484008f6362f93160ef3e563600790920291820155858301517f290decd9548b62a8d60345a988386fc84ba6bc95484008f6362f93160ef3e564820180547fffffffffffffffffffffffff0000000000000000000000000000000000000000166001600160a01b0390921691909117905560408601517f290decd9548b62a8d60345a988386fc84ba6bc95484008f6362f93160ef3e5658201819055606087015180517f290decd9548b62a8d60345a988386fc84ba6bc95484008f6362f93160ef3e5668401558401517f290decd9548b62a8d60345a988386fc84ba6bc95484008f6362f93160ef3e567830155915180517f290decd9548b62a8d60345a988386fc84ba6bc95484008f6362f93160ef3e568830155909201517f290decd9548b62a8d60345a988386fc84ba6bc95484008f6362f93160ef3e5699092019190915561060890336106cc565b5061061683604001516106de565b5060608301515161062790336106cc565b50606083015151610637906106de565b5061064a836060015160200151336106cc565b5061065c8360600151602001516106de565b5060808301515161066d90336106cc565b5060808301515161067d906106de565b50610690836080015160200151336106cc565b506106a28360800151602001516106de565b5050505050565b5f6106b6838360066106ed565b90505b92915050565b5f6106b6838360076106ed565b5f6106d7838361080d565b5090919050565b5f6106e9823061080d565b5090565b7fed8d60e34876f751cc8b014c560745351147d9de11b9347c854e881b128ea6015460405163196d0b9b60e01b81525f917fed8d60e34876f751cc8b014c560745351147d9de11b9347c854e881b128ea600916001600160a01b039091169063196d0b9b90610766908890339089908990600401610a5a565b6020604051808303815f875af1158015610782573d5f803e3d5ffd5b505050506040513d601f19601f820116820180604052508101906107a69190610ae1565b8154604051630f8e573b60e21b8152600481018390523360248201529193506001600160a01b031690633e395cec906044015f604051808303815f87803b1580156107ef575f80fd5b505af1158015610801573d5f803e3d5ffd5b50505050509392505050565b5f7fed8d60e34876f751cc8b014c560745351147d9de11b9347c854e881b128ea6008054604051635ca4b5b160e11b8152600481018690526001600160a01b03858116602483015292935091169063b9496b62906044015f604051808303815f87803b15801561087b575f80fd5b505af115801561088d573d5f803e3d5ffd5b50505050505050565b5f602082840312156108a6575f80fd5b81356001600160a01b03811681146108bc575f80fd5b9392505050565b602080825282518282018190525f919060409081850190868401855b8281101561094757815180518552868101516001600160a01b031687860152858101518686015260608082015180518288015260208101516080880152505060800151805160a0860152602081015160c08601525060e09390930192908501906001016108df565b5091979650505050505050565b5f60208284031215610964575f80fd5b813567ffffffffffffffff81111561097a575f80fd5b8201608081850312156108bc575f80fd5b634e487b7160e01b5f52603260045260245ffd5b634e487b7160e01b5f52601160045260245ffd5b5f600182016109c4576109c461099f565b5060010190565b634e487b7160e01b5f52604160045260245ffd5b808201808211156106b9576106b961099f565b5f8235603e19833603018112610a06575f80fd5b9190910192915050565b5f808335601e19843603018112610a25575f80fd5b83018035915067ffffffffffffffff821115610a3f575f80fd5b602001915036819003821315610a53575f80fd5b9250929050565b8481525f60206001600160a01b03861660208401526080604084015284518060808501525f5b81811015610a9c5786810183015185820160a001528201610a80565b505f60a0828601015260a0601f19601f8301168501019250505060548310610ad257634e487b7160e01b5f52602160045260245ffd5b82606083015295945050505050565b5f60208284031215610af1575f80fd5b505191905056fea164736f6c6343000818000a",
  "linkReferences": {},
  "deployedLinkReferences": {}
}