{
  "_format": "hh-sol-artifact-1",
  "contractName": "TokenSwap",
  "sourceName": "contracts/TokenSwap.sol",
  "abi": [
    {
      "inputs": [
        {
          "internalType": "address",
          "name": "token",
          "type": "address"
        },
        {
          "internalType": "uint256",
          "name": "amount",
          "type": "uint256"
        }
      ],
      "name": "deposit",
      "outputs": [],
      "stateMutability": "nonpayable",
      "type": "function"
    },
    {
      "inputs": [
        {
          "internalType": "address",
          "name": "wallet",
          "type": "address"
        },
        {
          "internalType": "address",
          "name": "tokenFrom",
          "type": "address"
        },
        {
          "internalType": "address",
          "name": "tokenTo",
          "type": "address"
        },
        {
          "internalType": "uint256",
          "name": "amountFrom",
          "type": "uint256"
        },
        {
          "internalType": "uint256",
          "name": "amountTo",
          "type": "uint256"
        }
      ],
      "name": "swap",
      "outputs": [],
      "stateMutability": "nonpayable",
      "type": "function"
    }
  ],
  "bytecode": "0x608060405234801561000f575f80fd5b506104218061001d5f395ff3fe608060405234801561000f575f80fd5b5060043610610034575f3560e01c806347e7ef2414610038578063e343fe121461004d575b5f80fd5b61004b61004636600461035e565b610060565b005b61004b61005b366004610386565b6100d9565b6040516323b872dd60e01b8152336004820152306024820152604481018290526001600160a01b038316906323b872dd906064016020604051808303815f875af11580156100b0573d5f803e3d5ffd5b505050506040513d601f19601f820116820180604052508101906100d491906103d7565b505050565b5f821180156100e757505f81115b6101385760405162461bcd60e51b815260206004820152601860248201527f416d6f756e7473206d75737420626520706f736974697665000000000000000060448201526064015b60405180910390fd5b826001600160a01b0316846001600160a01b0316036101995760405162461bcd60e51b815260206004820152601860248201527f546f6b656e73206d75737420626520646966666572656e740000000000000000604482015260640161012f565b6040516370a0823160e01b81523060048201525f906001600160a01b038516906370a0823190602401602060405180830381865afa1580156101dd573d5f803e3d5ffd5b505050506040513d601f19601f8201168201806040525081019061020191906103fd565b9050818110156102535760405162461bcd60e51b815260206004820152601c60248201527f496e73756666696369656e7420746f6b656e546f2062616c616e636500000000604482015260640161012f565b6040516323b872dd60e01b81526001600160a01b038781166004830152306024830152604482018590528616906323b872dd906064016020604051808303815f875af11580156102a5573d5f803e3d5ffd5b505050506040513d601f19601f820116820180604052508101906102c991906103d7565b5060405163a9059cbb60e01b81526001600160a01b0387811660048301526024820184905285169063a9059cbb906044016020604051808303815f875af1158015610316573d5f803e3d5ffd5b505050506040513d601f19601f8201168201806040525081019061033a91906103d7565b50505050505050565b80356001600160a01b0381168114610359575f80fd5b919050565b5f806040838503121561036f575f80fd5b61037883610343565b946020939093013593505050565b5f805f805f60a0868803121561039a575f80fd5b6103a386610343565b94506103b160208701610343565b93506103bf60408701610343565b94979396509394606081013594506080013592915050565b5f602082840312156103e7575f80fd5b815180151581146103f6575f80fd5b9392505050565b5f6020828403121561040d575f80fd5b505191905056fea164736f6c6343000818000a",
  "linkReferences": {},
  "deployedLinkReferences": {}
}